{
  "contractName": "DsToken",
  "abi": [
    {
      "constant": true,
      "inputs": [],
      "name": "name",
      "outputs": [
        {
          "name": "",
          "type": "string"
        }
      ],
      "payable": false,
      "stateMutability": "view",
      "type": "function"
    },
    {
      "constant": true,
      "inputs": [],
      "name": "totalSupply",
      "outputs": [
        {
          "name": "",
          "type": "uint256"
        }
      ],
      "payable": false,
      "stateMutability": "view",
      "type": "function"
    },
    {
      "constant": true,
      "inputs": [],
      "name": "standard",
      "outputs": [
        {
          "name": "",
          "type": "string"
        }
      ],
      "payable": false,
      "stateMutability": "view",
      "type": "function"
    },
    {
      "constant": true,
      "inputs": [
        {
          "name": "",
          "type": "address"
        }
      ],
      "name": "balanceOf",
      "outputs": [
        {
          "name": "",
          "type": "uint256"
        }
      ],
      "payable": false,
      "stateMutability": "view",
      "type": "function"
    },
    {
      "constant": true,
      "inputs": [],
      "name": "symbol",
      "outputs": [
        {
          "name": "",
          "type": "string"
        }
      ],
      "payable": false,
      "stateMutability": "view",
      "type": "function"
    },
    {
      "inputs": [
        {
          "name": "_initialSupply",
          "type": "uint256"
        }
      ],
      "payable": false,
      "stateMutability": "nonpayable",
      "type": "constructor"
    }
  ],
  "bytecode": "0x60606040526040805190810160405280600881526020017f447320546f6b656e0000000000000000000000000000000000000000000000008152506000908051906020019061004f929190610160565b506040805190810160405280600281526020017f44530000000000000000000000000000000000000000000000000000000000008152506001908051906020019061009b929190610160565b506040805190810160405280600f81526020017f447320546f6b656e2076312e302e300000000000000000000000000000000000815250600290805190602001906100e7929190610160565b5034156100f357600080fd5b6040516020806106ca833981016040528080519060200190919050508060038190555080600460003373ffffffffffffffffffffffffffffffffffffffff1673ffffffffffffffffffffffffffffffffffffffff1681526020019081526020016000208190555050610205565b828054600181600116156101000203166002900490600052602060002090601f016020900481019282601f106101a157805160ff19168380011785556101cf565b828001600101855582156101cf579182015b828111156101ce5782518255916020019190600101906101b3565b5b5090506101dc91906101e0565b5090565b61020291905b808211156101fe5760008160009055506001016101e6565b5090565b90565b6104b6806102146000396000f30060606040526004361061006d576000357c0100000000000000000000000000000000000000000000000000000000900463ffffffff16806306fdde031461007257806318160ddd146101005780635a3b7e421461012957806370a08231146101b757806395d89b4114610204575b600080fd5b341561007d57600080fd5b610085610292565b6040518080602001828103825283818151815260200191508051906020019080838360005b838110156100c55780820151818401526020810190506100aa565b50505050905090810190601f1680156100f25780820380516001836020036101000a031916815260200191505b509250505060405180910390f35b341561010b57600080fd5b610113610330565b6040518082815260200191505060405180910390f35b341561013457600080fd5b61013c610336565b6040518080602001828103825283818151815260200191508051906020019080838360005b8381101561017c578082015181840152602081019050610161565b50505050905090810190601f1680156101a95780820380516001836020036101000a031916815260200191505b509250505060405180910390f35b34156101c257600080fd5b6101ee600480803573ffffffffffffffffffffffffffffffffffffffff169060200190919050506103d4565b6040518082815260200191505060405180910390f35b341561020f57600080fd5b6102176103ec565b6040518080602001828103825283818151815260200191508051906020019080838360005b8381101561025757808201518184015260208101905061023c565b50505050905090810190601f1680156102845780820380516001836020036101000a031916815260200191505b509250505060405180910390f35b60008054600181600116156101000203166002900480601f0160208091040260200160405190810160405280929190818152602001828054600181600116156101000203166002900480156103285780601f106102fd57610100808354040283529160200191610328565b820191906000526020600020905b81548152906001019060200180831161030b57829003601f168201915b505050505081565b60035481565b60028054600181600116156101000203166002900480601f0160208091040260200160405190810160405280929190818152602001828054600181600116156101000203166002900480156103cc5780601f106103a1576101008083540402835291602001916103cc565b820191906000526020600020905b8154815290600101906020018083116103af57829003601f168201915b505050505081565b60046020528060005260406000206000915090505481565b60018054600181600116156101000203166002900480601f0160208091040260200160405190810160405280929190818152602001828054600181600116156101000203166002900480156104825780601f1061045757610100808354040283529160200191610482565b820191906000526020600020905b81548152906001019060200180831161046557829003601f168201915b5050505050815600a165627a7a723058204a13702a3e421b232c1a56a969af67b13519201a19f2671cd09db526e149ff4e0029",
  "source": "pragma solidity ^0.4.21;\r\n\r\n/**\r\n * The DToken contract does this and that...\r\n */\r\ncontract DsToken {\r\n\t/**\r\n\t * set the total number of tokens\r\n\t * get the total number of tokens\r\n\t */\r\n\tstring public name = \"Ds Token\";\r\n\tstring public symbol = \"DS\";\r\n\tstring public standard = \"Ds Token v1.0.0\";\r\n\tuint256 public totalSupply;\r\n\t// map the address to the value of balance\r\n\tmapping (address => uint256) public balanceOf;\r\n\t\r\n\tfunction DsToken (uint256 _initialSupply) public {\r\n\t\ttotalSupply = _initialSupply;\r\n\t\tbalanceOf[msg.sender] = _initialSupply;\r\n\t}\t\r\n\r\n\t\r\n}\r\n",
  "sourcePath": "D:\\Blockchain\\DToken\\contracts\\DsToken.sol",
  "compiler": {
    "name": "solc",
    "version": "0.4.21+commit.dfe3193c.Emscripten.clang"
  },
  "schemaVersion": "2.0.0",
  "updatedAt": "2018-04-14T11:24:33.724Z"
}