{
  "contractName": "DsToken",
  "abi": [
    {
      "constant": true,
      "inputs": [],
      "name": "name",
      "outputs": [
        {
          "name": "",
          "type": "string"
        }
      ],
      "payable": false,
      "stateMutability": "view",
      "type": "function"
    },
    {
      "constant": true,
      "inputs": [],
      "name": "totalSupply",
      "outputs": [
        {
          "name": "",
          "type": "uint256"
        }
      ],
      "payable": false,
      "stateMutability": "view",
      "type": "function"
    },
    {
      "constant": true,
      "inputs": [],
      "name": "standard",
      "outputs": [
        {
          "name": "",
          "type": "string"
        }
      ],
      "payable": false,
      "stateMutability": "view",
      "type": "function"
    },
    {
      "constant": true,
      "inputs": [
        {
          "name": "",
          "type": "address"
        }
      ],
      "name": "balanceOf",
      "outputs": [
        {
          "name": "",
          "type": "uint256"
        }
      ],
      "payable": false,
      "stateMutability": "view",
      "type": "function"
    },
    {
      "constant": true,
      "inputs": [],
      "name": "symbol",
      "outputs": [
        {
          "name": "",
          "type": "string"
        }
      ],
      "payable": false,
      "stateMutability": "view",
      "type": "function"
    },
    {
      "inputs": [
        {
          "name": "_initialSupply",
          "type": "uint256"
        }
      ],
      "payable": false,
      "stateMutability": "nonpayable",
      "type": "constructor"
    },
    {
      "anonymous": false,
      "inputs": [
        {
          "indexed": true,
          "name": "_from",
          "type": "address"
        },
        {
          "indexed": true,
          "name": "_to",
          "type": "address"
        },
        {
          "indexed": false,
          "name": "_value",
          "type": "uint256"
        }
      ],
      "name": "Transfer",
      "type": "event"
    },
    {
      "constant": false,
      "inputs": [
        {
          "name": "_to",
          "type": "address"
        },
        {
          "name": "_value",
          "type": "uint256"
        }
      ],
      "name": "tranfer",
      "outputs": [
        {
          "name": "success",
          "type": "bool"
        }
      ],
      "payable": false,
      "stateMutability": "nonpayable",
      "type": "function"
    }
  ],
  "bytecode": "0x60606040526040805190810160405280600881526020017f447320546f6b656e0000000000000000000000000000000000000000000000008152506000908051906020019061004f929190610160565b506040805190810160405280600281526020017f44530000000000000000000000000000000000000000000000000000000000008152506001908051906020019061009b929190610160565b506040805190810160405280600f81526020017f447320546f6b656e2076312e302e300000000000000000000000000000000000815250600290805190602001906100e7929190610160565b5034156100f357600080fd5b604051602080610888833981016040528080519060200190919050508060038190555080600460003373ffffffffffffffffffffffffffffffffffffffff1673ffffffffffffffffffffffffffffffffffffffff1681526020019081526020016000208190555050610205565b828054600181600116156101000203166002900490600052602060002090601f016020900481019282601f106101a157805160ff19168380011785556101cf565b828001600101855582156101cf579182015b828111156101ce5782518255916020019190600101906101b3565b5b5090506101dc91906101e0565b5090565b61020291905b808211156101fe5760008160009055506001016101e6565b5090565b90565b610674806102146000396000f300606060405260043610610078576000357c0100000000000000000000000000000000000000000000000000000000900463ffffffff16806306fdde031461007d57806318160ddd1461010b5780635a3b7e421461013457806370a08231146101c257806395d89b411461020f578063c610bb071461029d575b600080fd5b341561008857600080fd5b6100906102f7565b6040518080602001828103825283818151815260200191508051906020019080838360005b838110156100d05780820151818401526020810190506100b5565b50505050905090810190601f1680156100fd5780820380516001836020036101000a031916815260200191505b509250505060405180910390f35b341561011657600080fd5b61011e610395565b6040518082815260200191505060405180910390f35b341561013f57600080fd5b61014761039b565b6040518080602001828103825283818151815260200191508051906020019080838360005b8381101561018757808201518184015260208101905061016c565b50505050905090810190601f1680156101b45780820380516001836020036101000a031916815260200191505b509250505060405180910390f35b34156101cd57600080fd5b6101f9600480803573ffffffffffffffffffffffffffffffffffffffff16906020019091905050610439565b6040518082815260200191505060405180910390f35b341561021a57600080fd5b610222610451565b6040518080602001828103825283818151815260200191508051906020019080838360005b83811015610262578082015181840152602081019050610247565b50505050905090810190601f16801561028f5780820380516001836020036101000a031916815260200191505b509250505060405180910390f35b34156102a857600080fd5b6102dd600480803573ffffffffffffffffffffffffffffffffffffffff169060200190919080359060200190919050506104ef565b604051808215151515815260200191505060405180910390f35b60008054600181600116156101000203166002900480601f01602080910402602001604051908101604052809291908181526020018280546001816001161561010002031660029004801561038d5780601f106103625761010080835404028352916020019161038d565b820191906000526020600020905b81548152906001019060200180831161037057829003601f168201915b505050505081565b60035481565b60028054600181600116156101000203166002900480601f0160208091040260200160405190810160405280929190818152602001828054600181600116156101000203166002900480156104315780601f1061040657610100808354040283529160200191610431565b820191906000526020600020905b81548152906001019060200180831161041457829003601f168201915b505050505081565b60046020528060005260406000206000915090505481565b60018054600181600116156101000203166002900480601f0160208091040260200160405190810160405280929190818152602001828054600181600116156101000203166002900480156104e75780601f106104bc576101008083540402835291602001916104e7565b820191906000526020600020905b8154815290600101906020018083116104ca57829003601f168201915b505050505081565b600081600460003373ffffffffffffffffffffffffffffffffffffffff1673ffffffffffffffffffffffffffffffffffffffff168152602001908152602001600020541015151561053f57600080fd5b81600460003373ffffffffffffffffffffffffffffffffffffffff1673ffffffffffffffffffffffffffffffffffffffff1681526020019081526020016000206000828254039250508190555081600460008573ffffffffffffffffffffffffffffffffffffffff1673ffffffffffffffffffffffffffffffffffffffff168152602001908152602001600020600082825401925050819055508273ffffffffffffffffffffffffffffffffffffffff163373ffffffffffffffffffffffffffffffffffffffff167fddf252ad1be2c89b69c2b068fc378daa952ba7f163c4a11628f55a4df523b3ef846040518082815260200191505060405180910390a360019050929150505600a165627a7a723058201660ff56c9ca9694b23058dbe47a173c2d99e6df44e17f9599c88eedbc80f0fb0029",
  "source": "pragma solidity ^0.4.21;\r\n\r\n/**\r\n * The DToken contract does this and that...\r\n */\r\n contract DsToken {\r\n\t/*\r\n\t * Set the total number of tokens\r\n\t * Get the total number of tokens\r\n\t */\r\n\t string public name = \"Ds Token\";\r\n\t string public symbol = \"DS\";\r\n\t string public standard = \"Ds Token v1.0.0\";\r\n\t uint256 public totalSupply;\r\n\t //Map the address to the value of balance\r\n\t mapping (address => uint256) public balanceOf;\r\n\r\n\t function DsToken (uint256 _initialSupply) public {\r\n\t \ttotalSupply = _initialSupply;\r\n\t \tbalanceOf[msg.sender] = _initialSupply;\r\n\t }\t\r\n\r\n\t event Transfer(\r\n\t \taddress indexed _from,\r\n\t \taddress indexed _to,\r\n\t \tuint256 _value \r\n\t );\r\n\r\n\r\n\r\n\t //Tranfer function\r\n\t function tranfer (address _to, uint256 _value) public returns(bool success){\r\n\t \t//Exception if account doesn't have enough \r\n\t \trequire(balanceOf[msg.sender] >= _value);\r\n\t \t//Tranfer balance\r\n\t \tbalanceOf[msg.sender] -= _value;\r\n\t \tbalanceOf[_to] += _value;\r\n\t \t//Trigger tranfer event\r\n\t \tTransfer(msg.sender, _to, _value);\r\n\t \t//Return a boolean\r\n\t \treturn true;\r\n\r\n\t }\r\n\r\n\t}\r\n",
  "sourcePath": "D:\\Blockchain\\DToken\\contracts\\DsToken.sol",
  "compiler": {
    "name": "solc",
    "version": "0.4.21+commit.dfe3193c.Emscripten.clang"
  },
  "schemaVersion": "2.0.0",
  "updatedAt": "2018-04-15T04:57:43.026Z"
}