{
  "contractName": "DToken",
  "abi": [
    {
      "constant": true,
      "inputs": [],
      "name": "totalSupply",
      "outputs": [
        {
          "name": "",
          "type": "uint256"
        }
      ],
      "payable": false,
      "stateMutability": "view",
      "type": "function"
    },
    {
      "inputs": [],
      "payable": false,
      "stateMutability": "nonpayable",
      "type": "constructor"
    }
  ],
  "bytecode": "0x60606040523415600e57600080fd5b620f4240600081905550609c806100266000396000f300606060405260043610603f576000357c0100000000000000000000000000000000000000000000000000000000900463ffffffff16806318160ddd146044575b600080fd5b3415604e57600080fd5b6054606a565b6040518082815260200191505060405180910390f35b600054815600a165627a7a72305820b21f726b30db4a1273add1bbe1bd7f2d1e1642c11599cc37af5e7d90b0af27910029",
  "source": "pragma solidity ^0.4.21;\r\n\r\n/**\r\n * The DToken contract does this and that...\r\n */\r\ncontract DToken {\r\n\t/**\r\n\t * set the total number of tokens\r\n\t * get the total number of tokens\r\n\t */\r\n\tuint256 public totalSupply;\r\n\tfunction DToken () public {\r\n\t\ttotalSupply = 1000000;\r\n\t}\t\r\n\t\r\n}\r\n",
  "sourcePath": "D:\\Blockchain\\DToken\\contracts\\DToken.sol",
  "compiler": {
    "name": "solc",
    "version": "0.4.21+commit.dfe3193c.Emscripten.clang"
  },
  "schemaVersion": "2.0.0",
  "updatedAt": "2018-04-14T09:42:27.016Z"
}